{
  "contractName": "RBAC",
  "abi": [
    {
      "constant": true,
      "inputs": [],
      "name": "ROLE_ADMIN",
      "outputs": [
        {
          "name": "",
          "type": "string"
        }
      ],
      "payable": false,
      "stateMutability": "view",
      "type": "function"
    },
    {
      "inputs": [],
      "payable": false,
      "stateMutability": "nonpayable",
      "type": "constructor"
    },
    {
      "anonymous": false,
      "inputs": [
        {
          "indexed": false,
          "name": "addr",
          "type": "address"
        },
        {
          "indexed": false,
          "name": "roleName",
          "type": "string"
        }
      ],
      "name": "RoleAdded",
      "type": "event"
    },
    {
      "anonymous": false,
      "inputs": [
        {
          "indexed": false,
          "name": "addr",
          "type": "address"
        },
        {
          "indexed": false,
          "name": "roleName",
          "type": "string"
        }
      ],
      "name": "RoleRemoved",
      "type": "event"
    },
    {
      "constant": true,
      "inputs": [
        {
          "name": "addr",
          "type": "address"
        },
        {
          "name": "roleName",
          "type": "string"
        }
      ],
      "name": "checkRole",
      "outputs": [],
      "payable": false,
      "stateMutability": "view",
      "type": "function"
    },
    {
      "constant": true,
      "inputs": [
        {
          "name": "addr",
          "type": "address"
        },
        {
          "name": "roleName",
          "type": "string"
        }
      ],
      "name": "hasRole",
      "outputs": [
        {
          "name": "",
          "type": "bool"
        }
      ],
      "payable": false,
      "stateMutability": "view",
      "type": "function"
    },
    {
      "constant": false,
      "inputs": [
        {
          "name": "addr",
          "type": "address"
        },
        {
          "name": "roleName",
          "type": "string"
        }
      ],
      "name": "adminAddRole",
      "outputs": [],
      "payable": false,
      "stateMutability": "nonpayable",
      "type": "function"
    },
    {
      "constant": false,
      "inputs": [
        {
          "name": "addr",
          "type": "address"
        },
        {
          "name": "roleName",
          "type": "string"
        }
      ],
      "name": "adminRemoveRole",
      "outputs": [],
      "payable": false,
      "stateMutability": "nonpayable",
      "type": "function"
    }
  ],
  "bytecode": "0x608060405234801561001057600080fd5b5061005f336040805190810160405280600581526020017f61646d696e000000000000000000000000000000000000000000000000000000815250610064640100000000026401000000009004565b610220565b6100ee826000836040518082805190602001908083835b6020831015156100a0578051825260208201915060208101905060208303925061007b565b6001836020036101000a03801982511681845116808217855250505050505090500191505090815260200160405180910390206101c26401000000000261088b179091906401000000009004565b7fbfec83d64eaa953f2708271a023ab9ee82057f8f3578d548c1a4ba0b5b7004898282604051808373ffffffffffffffffffffffffffffffffffffffff1673ffffffffffffffffffffffffffffffffffffffff16815260200180602001828103825283818151815260200191508051906020019080838360005b83811015610183578082015181840152602081019050610168565b50505050905090810190601f1680156101b05780820380516001836020036101000a031916815260200191505b50935050505060405180910390a15050565b60018260000160008373ffffffffffffffffffffffffffffffffffffffff1673ffffffffffffffffffffffffffffffffffffffff16815260200190815260200160002060006101000a81548160ff0219169083151502179055505050565b6109158061022f6000396000f30060806040526004361061006d576000357c0100000000000000000000000000000000000000000000000000000000900463ffffffff1680630988ca8c14610072578063217fe6c6146100fb57806388cee87e1461019c578063b25fa92c14610225578063d391014b146102ae575b600080fd5b34801561007e57600080fd5b506100f9600480360381019080803573ffffffffffffffffffffffffffffffffffffffff169060200190929190803590602001908201803590602001908080601f016020809104026020016040519081016040528093929190818152602001838380828437820191505050505050919291929050505061033e565b005b34801561010757600080fd5b50610182600480360381019080803573ffffffffffffffffffffffffffffffffffffffff169060200190929190803590602001908201803590602001908080601f01602080910402602001604051908101604052809392919081815260200183838082843782019150505050505091929192905050506103bf565b604051808215151515815260200191505060405180910390f35b3480156101a857600080fd5b50610223600480360381019080803573ffffffffffffffffffffffffffffffffffffffff169060200190929190803590602001908201803590602001908080601f0160208091040260200160405190810160405280939291908181526020018383808284378201915050505050509192919290505050610446565b005b34801561023157600080fd5b506102ac600480360381019080803573ffffffffffffffffffffffffffffffffffffffff169060200190929190803590602001908201803590602001908080601f0160208091040260200160405190810160405280939291908181526020018383808284378201915050505050509192919290505050610493565b005b3480156102ba57600080fd5b506102c36104e0565b6040518080602001828103825283818151815260200191508051906020019080838360005b838110156103035780820151818401526020810190506102e8565b50505050905090810190601f1680156103305780820380516001836020036101000a031916815260200191505b509250505060405180910390f35b6103bb826000836040518082805190602001908083835b60208310151561037a5780518252602082019150602081019050602083039250610355565b6001836020036101000a038019825116818451168082178552505050505050905001915050908152602001604051809103902061051990919063ffffffff16565b5050565b600061043e836000846040518082805190602001908083835b6020831015156103fd57805182526020820191506020810190506020830392506103d8565b6001836020036101000a038019825116818451168082178552505050505050905001915050908152602001604051809103902061053290919063ffffffff16565b905092915050565b610485336040805190810160405280600581526020017f61646d696e00000000000000000000000000000000000000000000000000000081525061033e565b61048f828261058b565b5050565b6104d2336040805190810160405280600581526020017f61646d696e00000000000000000000000000000000000000000000000000000081525061033e565b6104dc82826106dc565b5050565b6040805190810160405280600581526020017f61646d696e00000000000000000000000000000000000000000000000000000081525081565b6105238282610532565b151561052e57600080fd5b5050565b60008260000160008373ffffffffffffffffffffffffffffffffffffffff1673ffffffffffffffffffffffffffffffffffffffff16815260200190815260200160002060009054906101000a900460ff16905092915050565b610608826000836040518082805190602001908083835b6020831015156105c757805182526020820191506020810190506020830392506105a2565b6001836020036101000a038019825116818451168082178552505050505050905001915050908152602001604051809103902061082d90919063ffffffff16565b7fd211483f91fc6eff862467f8de606587a30c8fc9981056f051b897a418df803a8282604051808373ffffffffffffffffffffffffffffffffffffffff1673ffffffffffffffffffffffffffffffffffffffff16815260200180602001828103825283818151815260200191508051906020019080838360005b8381101561069d578082015181840152602081019050610682565b50505050905090810190601f1680156106ca5780820380516001836020036101000a031916815260200191505b50935050505060405180910390a15050565b610759826000836040518082805190602001908083835b60208310151561071857805182526020820191506020810190506020830392506106f3565b6001836020036101000a038019825116818451168082178552505050505050905001915050908152602001604051809103902061088b90919063ffffffff16565b7fbfec83d64eaa953f2708271a023ab9ee82057f8f3578d548c1a4ba0b5b7004898282604051808373ffffffffffffffffffffffffffffffffffffffff1673ffffffffffffffffffffffffffffffffffffffff16815260200180602001828103825283818151815260200191508051906020019080838360005b838110156107ee5780820151818401526020810190506107d3565b50505050905090810190601f16801561081b5780820380516001836020036101000a031916815260200191505b50935050505060405180910390a15050565b60008260000160008373ffffffffffffffffffffffffffffffffffffffff1673ffffffffffffffffffffffffffffffffffffffff16815260200190815260200160002060006101000a81548160ff0219169083151502179055505050565b60018260000160008373ffffffffffffffffffffffffffffffffffffffff1673ffffffffffffffffffffffffffffffffffffffff16815260200190815260200160002060006101000a81548160ff02191690831515021790555050505600a165627a7a7230582097e0f52e462f25427c88f33f5c8eebd869c0f8318edcb4832fd7c24276b7f2380029",
  "source": "pragma solidity ^0.4.18;\n\nimport \"./Roles.sol\";\n\n\n/**\n * @title RBAC (Role-Based Access Control)\n * @author Matt Condon (@Shrugs)\n * @dev Stores and provides setters and getters for roles and addresses.\n *      Supports unlimited numbers of roles and addresses.\n *      See //contracts/mocks/RBACMock.sol for an example of usage.\n * This RBAC method uses strings to key roles. It may be beneficial\n *  for you to write your own implementation of this interface using Enums or similar.\n * It's also recommended that you define constants in the contract, like ROLE_ADMIN below,\n *  to avoid typos.\n */\ncontract RBAC {\n    using Roles for Roles.Role;\n\n    mapping(string => Roles.Role) private roles;\n\n    event RoleAdded(address addr, string roleName);\n    event RoleRemoved(address addr, string roleName);\n\n    /**\n     * A constant role name for indicating admins.\n     */\n    string public constant ROLE_ADMIN = \"admin\";\n\n/**\n * @dev constructor. Sets msg.sender as admin by default\n */\nconstructor()\npublic\n{\naddRole(msg.sender, ROLE_ADMIN);\n}\n\n/**\n * @dev reverts if addr does not have role\n * @param addr address\n * @param roleName the name of the role\n * // reverts\n */\nfunction checkRole(address addr, string roleName)\nview\npublic\n{\nroles[roleName].check(addr);\n}\n\n/**\n * @dev determine if addr has role\n * @param addr address\n * @param roleName the name of the role\n * @return bool\n */\nfunction hasRole(address addr, string roleName)\nview\npublic\nreturns (bool)\n{\nreturn roles[roleName].has(addr);\n}\n\n/**\n * @dev add a role to an address\n * @param addr address\n * @param roleName the name of the role\n */\nfunction adminAddRole(address addr, string roleName)\nonlyAdmin\npublic\n{\naddRole(addr, roleName);\n}\n\n/**\n * @dev remove a role from an address\n * @param addr address\n * @param roleName the name of the role\n */\nfunction adminRemoveRole(address addr, string roleName)\nonlyAdmin\npublic\n{\nremoveRole(addr, roleName);\n}\n\n/**\n * @dev add a role to an address\n * @param addr address\n * @param roleName the name of the role\n */\nfunction addRole(address addr, string roleName)\ninternal\n{\nroles[roleName].add(addr);\nemit RoleAdded(addr, roleName);\n}\n\n/**\n * @dev remove a role from an address\n * @param addr address\n * @param roleName the name of the role\n */\nfunction removeRole(address addr, string roleName)\ninternal\n{\nroles[roleName].remove(addr);\nemit RoleRemoved(addr, roleName);\n}\n\n/**\n * @dev modifier to scope access to a single role (uses msg.sender as addr)\n * @param roleName the name of the role\n * // reverts\n */\nmodifier onlyRole(string roleName)\n{\ncheckRole(msg.sender, roleName);\n_;\n}\n\n/**\n * @dev modifier to scope access to admins\n * // reverts\n */\nmodifier onlyAdmin()\n{\ncheckRole(msg.sender, ROLE_ADMIN);\n_;\n}\n\n/**\n * @dev modifier to scope access to a set of roles (uses msg.sender as addr)\n * @param roleNames the names of the roles to scope access to\n * // reverts\n *\n * @TODO - when solidity supports dynamic arrays as arguments to modifiers, provide this\n *  see: https://github.com/ethereum/solidity/issues/2467\n */\n// modifier onlyRoles(string[] roleNames) {\n//     bool hasAnyRole = false;\n//     for (uint8 i = 0; i < roleNames.length; i++) {\n//         if (hasRole(msg.sender, roleNames[i])) {\n//             hasAnyRole = true;\n//             break;\n//         }\n//     }\n\n//     require(hasAnyRole);\n\n//     _;\n// }\n}\n",
  "sourcePath": "/Users/rao/Documents/Codebases/Blockchain/Eric/RegestraICO/RegestraICO/contracts/ownership/rbac/RBAC.sol",
  "compiler": {
    "name": "solc",
    "version": "0.4.23+commit.124ca40d.Emscripten.clang"
  },
  "schemaVersion": "2.0.0",
  "updatedAt": "2018-06-08T01:26:24.723Z"
}