{
  "contractName": "RefundVault",
  "abi": [
    {
      "constant": true,
      "inputs": [],
      "name": "wallet",
      "outputs": [
        {
          "name": "",
          "type": "address"
        }
      ],
      "payable": false,
      "stateMutability": "view",
      "type": "function"
    },
    {
      "constant": true,
      "inputs": [],
      "name": "owner",
      "outputs": [
        {
          "name": "",
          "type": "address"
        }
      ],
      "payable": false,
      "stateMutability": "view",
      "type": "function"
    },
    {
      "constant": true,
      "inputs": [],
      "name": "state",
      "outputs": [
        {
          "name": "",
          "type": "uint8"
        }
      ],
      "payable": false,
      "stateMutability": "view",
      "type": "function"
    },
    {
      "constant": true,
      "inputs": [
        {
          "name": "",
          "type": "address"
        }
      ],
      "name": "deposited",
      "outputs": [
        {
          "name": "",
          "type": "uint256"
        }
      ],
      "payable": false,
      "stateMutability": "view",
      "type": "function"
    },
    {
      "constant": false,
      "inputs": [
        {
          "name": "newOwner",
          "type": "address"
        }
      ],
      "name": "transferOwnership",
      "outputs": [],
      "payable": false,
      "stateMutability": "nonpayable",
      "type": "function"
    },
    {
      "inputs": [
        {
          "name": "_wallet",
          "type": "address"
        }
      ],
      "payable": false,
      "stateMutability": "nonpayable",
      "type": "constructor"
    },
    {
      "anonymous": false,
      "inputs": [],
      "name": "Closed",
      "type": "event"
    },
    {
      "anonymous": false,
      "inputs": [],
      "name": "RefundsEnabled",
      "type": "event"
    },
    {
      "anonymous": false,
      "inputs": [
        {
          "indexed": true,
          "name": "beneficiary",
          "type": "address"
        },
        {
          "indexed": false,
          "name": "weiAmount",
          "type": "uint256"
        }
      ],
      "name": "Refunded",
      "type": "event"
    },
    {
      "anonymous": false,
      "inputs": [
        {
          "indexed": true,
          "name": "previousOwner",
          "type": "address"
        },
        {
          "indexed": true,
          "name": "newOwner",
          "type": "address"
        }
      ],
      "name": "OwnershipTransferred",
      "type": "event"
    },
    {
      "constant": false,
      "inputs": [
        {
          "name": "investor",
          "type": "address"
        }
      ],
      "name": "deposit",
      "outputs": [],
      "payable": true,
      "stateMutability": "payable",
      "type": "function"
    },
    {
      "constant": false,
      "inputs": [],
      "name": "close",
      "outputs": [],
      "payable": false,
      "stateMutability": "nonpayable",
      "type": "function"
    },
    {
      "constant": false,
      "inputs": [],
      "name": "enableRefunds",
      "outputs": [],
      "payable": false,
      "stateMutability": "nonpayable",
      "type": "function"
    },
    {
      "constant": false,
      "inputs": [
        {
          "name": "investor",
          "type": "address"
        }
      ],
      "name": "refund",
      "outputs": [],
      "payable": false,
      "stateMutability": "nonpayable",
      "type": "function"
    }
  ],
  "bytecode": "0x608060405234801561001057600080fd5b50604051602080610abd83398101806040528101908080519060200190929190505050336000806101000a81548173ffffffffffffffffffffffffffffffffffffffff021916908373ffffffffffffffffffffffffffffffffffffffff160217905550600073ffffffffffffffffffffffffffffffffffffffff168173ffffffffffffffffffffffffffffffffffffffff16141515156100af57600080fd5b80600260006101000a81548173ffffffffffffffffffffffffffffffffffffffff021916908373ffffffffffffffffffffffffffffffffffffffff1602179055506000600260146101000a81548160ff0219169083600281111561010f57fe5b021790555050610999806101246000396000f300608060405260043610610099576000357c0100000000000000000000000000000000000000000000000000000000900463ffffffff16806343d726d61461009e578063521eb273146100b55780638c52dc411461010c5780638da5cb5b14610123578063c19d93fb1461017a578063cb13cddb146101b3578063f2fde38b1461020a578063f340fa011461024d578063fa89401a14610283575b600080fd5b3480156100aa57600080fd5b506100b36102c6565b005b3480156100c157600080fd5b506100ca610426565b604051808273ffffffffffffffffffffffffffffffffffffffff1673ffffffffffffffffffffffffffffffffffffffff16815260200191505060405180910390f35b34801561011857600080fd5b5061012161044c565b005b34801561012f57600080fd5b5061013861052d565b604051808273ffffffffffffffffffffffffffffffffffffffff1673ffffffffffffffffffffffffffffffffffffffff16815260200191505060405180910390f35b34801561018657600080fd5b5061018f610552565b6040518082600281111561019f57fe5b60ff16815260200191505060405180910390f35b3480156101bf57600080fd5b506101f4600480360381019080803573ffffffffffffffffffffffffffffffffffffffff169060200190929190505050610565565b6040518082815260200191505060405180910390f35b34801561021657600080fd5b5061024b600480360381019080803573ffffffffffffffffffffffffffffffffffffffff16906020019092919050505061057d565b005b610281600480360381019080803573ffffffffffffffffffffffffffffffffffffffff1690602001909291905050506106d2565b005b34801561028f57600080fd5b506102c4600480360381019080803573ffffffffffffffffffffffffffffffffffffffff1690602001909291905050506107f9565b005b6000809054906101000a900473ffffffffffffffffffffffffffffffffffffffff1673ffffffffffffffffffffffffffffffffffffffff163373ffffffffffffffffffffffffffffffffffffffff1614151561032157600080fd5b6000600281111561032e57fe5b600260149054906101000a900460ff16600281111561034957fe5b14151561035557600080fd5b60028060146101000a81548160ff0219169083600281111561037357fe5b02179055507f1cdde67b72a90f19919ac732a437ac2f7a10fc128d28c2a6e525d89ce5cd9d3a60405160405180910390a1600260009054906101000a900473ffffffffffffffffffffffffffffffffffffffff1673ffffffffffffffffffffffffffffffffffffffff166108fc3073ffffffffffffffffffffffffffffffffffffffff16319081150290604051600060405180830381858888f19350505050158015610423573d6000803e3d6000fd5b50565b600260009054906101000a900473ffffffffffffffffffffffffffffffffffffffff1681565b6000809054906101000a900473ffffffffffffffffffffffffffffffffffffffff1673ffffffffffffffffffffffffffffffffffffffff163373ffffffffffffffffffffffffffffffffffffffff161415156104a757600080fd5b600060028111156104b457fe5b600260149054906101000a900460ff1660028111156104cf57fe5b1415156104db57600080fd5b6001600260146101000a81548160ff021916908360028111156104fa57fe5b02179055507f599d8e5a83cffb867d051598c4d70e805d59802d8081c1c7d6dffc5b6aca2b8960405160405180910390a1565b6000809054906101000a900473ffffffffffffffffffffffffffffffffffffffff1681565b600260149054906101000a900460ff1681565b60016020528060005260406000206000915090505481565b6000809054906101000a900473ffffffffffffffffffffffffffffffffffffffff1673ffffffffffffffffffffffffffffffffffffffff163373ffffffffffffffffffffffffffffffffffffffff161415156105d857600080fd5b600073ffffffffffffffffffffffffffffffffffffffff168173ffffffffffffffffffffffffffffffffffffffff161415151561061457600080fd5b8073ffffffffffffffffffffffffffffffffffffffff166000809054906101000a900473ffffffffffffffffffffffffffffffffffffffff1673ffffffffffffffffffffffffffffffffffffffff167f8be0079c531659141344cd1fd0a4f28419497f9722a3daafe3b4186f6b6457e060405160405180910390a3806000806101000a81548173ffffffffffffffffffffffffffffffffffffffff021916908373ffffffffffffffffffffffffffffffffffffffff16021790555050565b6000809054906101000a900473ffffffffffffffffffffffffffffffffffffffff1673ffffffffffffffffffffffffffffffffffffffff163373ffffffffffffffffffffffffffffffffffffffff1614151561072d57600080fd5b6000600281111561073a57fe5b600260149054906101000a900460ff16600281111561075557fe5b14151561076157600080fd5b6107b334600160008473ffffffffffffffffffffffffffffffffffffffff1673ffffffffffffffffffffffffffffffffffffffff1681526020019081526020016000205461094f90919063ffffffff16565b600160008373ffffffffffffffffffffffffffffffffffffffff1673ffffffffffffffffffffffffffffffffffffffff1681526020019081526020016000208190555050565b60006001600281111561080857fe5b600260149054906101000a900460ff16600281111561082357fe5b14151561082f57600080fd5b600160008373ffffffffffffffffffffffffffffffffffffffff1673ffffffffffffffffffffffffffffffffffffffff1681526020019081526020016000205490506000600160008473ffffffffffffffffffffffffffffffffffffffff1673ffffffffffffffffffffffffffffffffffffffff168152602001908152602001600020819055508173ffffffffffffffffffffffffffffffffffffffff166108fc829081150290604051600060405180830381858888f193505050501580156108fc573d6000803e3d6000fd5b508173ffffffffffffffffffffffffffffffffffffffff167fd7dee2702d63ad89917b6a4da9981c90c4d24f8c2bdfd64c604ecae57d8d0651826040518082815260200191505060405180910390a25050565b600080828401905083811015151561096357fe5b80915050929150505600a165627a7a72305820aa1e6c613fbfa39c6d34fe9978be63f2b56cd33a45e65079bfcd4eb6c35214f60029",
  "source": "pragma solidity ^0.4.18;\n\nimport \"../../../math/SafeMath.sol\";\nimport \"../../../ownership/Ownable.sol\";\n\n\n/**\n * @title RefundVault\n * @dev This contract is used for storing funds while a crowdsale\n * is in progress. Supports refunding the money if crowdsale fails,\n * and forwarding it if crowdsale is successful.\n */\ncontract RefundVault is Ownable {\n    using SafeMath for uint256;\n\n    enum State {Active, Refunding, Closed}\n\n    mapping(address => uint256) public deposited;\n    address public wallet;\n    State public state;\n\n    event Closed();\n    event RefundsEnabled();\n    event Refunded(address indexed beneficiary, uint256 weiAmount);\n\n/**\n * @param _wallet Vault address\n */\nconstructor(address _wallet) public {\nrequire(_wallet != address(0));\nwallet = _wallet;\nstate = State.Active;\n}\n\n/**\n * @param investor Investor address\n */\nfunction deposit(address investor) onlyOwner public payable {\nrequire(state == State.Active);\ndeposited[investor] = deposited[investor].add(msg.value);\n}\n\nfunction close() onlyOwner public {\nrequire(state == State.Active);\nstate = State.Closed;\nemit Closed();\nwallet.transfer(address(this).balance);\n}\n\nfunction enableRefunds() onlyOwner public {\nrequire(state == State.Active);\nstate = State.Refunding;\nemit RefundsEnabled();\n}\n\n/**\n * @param investor Investor address\n */\nfunction refund(address investor) public {\nrequire(state == State.Refunding);\nuint256 depositedValue = deposited[investor];\ndeposited[investor] = 0;\ninvestor.transfer(depositedValue);\nemit Refunded(investor, depositedValue);\n}\n}\n",
  "sourcePath": "/Users/rao/Documents/Codebases/Blockchain/Eric/RegestraICO/RegestraICO/contracts/crowdsale/distribution/utils/RefundVault.sol",
  "compiler": {
    "name": "solc",
    "version": "0.4.23+commit.124ca40d.Emscripten.clang"
  },
  "schemaVersion": "2.0.0",
  "updatedAt": "2018-06-08T01:26:45.767Z"
}